{
  "contractName": "Photo",
  "abi": [
    {
      "constant": true,
      "inputs": [
        {
          "name": "",
          "type": "address"
        }
      ],
      "name": "images_by_addr",
      "outputs": [
        {
          "name": "image_Number",
          "type": "uint256"
        },
        {
          "name": "author",
          "type": "address"
        },
        {
          "name": "like_count",
          "type": "uint256"
        },
        {
          "name": "isPhoto",
          "type": "bool"
        }
      ],
      "payable": false,
      "stateMutability": "view",
      "type": "function"
    },
    {
      "constant": true,
      "inputs": [],
      "name": "userNumber",
      "outputs": [
        {
          "name": "",
          "type": "uint256"
        }
      ],
      "payable": false,
      "stateMutability": "view",
      "type": "function"
    },
    {
      "constant": true,
      "inputs": [
        {
          "name": "",
          "type": "uint256"
        }
      ],
      "name": "users_num",
      "outputs": [
        {
          "name": "user_Number",
          "type": "uint256"
        },
        {
          "name": "user_Address",
          "type": "address"
        },
        {
          "name": "isUser",
          "type": "bool"
        }
      ],
      "payable": false,
      "stateMutability": "view",
      "type": "function"
    },
    {
      "constant": true,
      "inputs": [
        {
          "name": "",
          "type": "address"
        }
      ],
      "name": "users_addr",
      "outputs": [
        {
          "name": "user_Number",
          "type": "uint256"
        },
        {
          "name": "user_Address",
          "type": "address"
        },
        {
          "name": "isUser",
          "type": "bool"
        }
      ],
      "payable": false,
      "stateMutability": "view",
      "type": "function"
    },
    {
      "constant": true,
      "inputs": [],
      "name": "owner",
      "outputs": [
        {
          "name": "",
          "type": "address"
        }
      ],
      "payable": false,
      "stateMutability": "view",
      "type": "function"
    },
    {
      "constant": true,
      "inputs": [],
      "name": "imageNumber",
      "outputs": [
        {
          "name": "",
          "type": "uint256"
        }
      ],
      "payable": false,
      "stateMutability": "view",
      "type": "function"
    },
    {
      "constant": true,
      "inputs": [
        {
          "name": "",
          "type": "uint256"
        }
      ],
      "name": "images_by_number",
      "outputs": [
        {
          "name": "image_Number",
          "type": "uint256"
        },
        {
          "name": "author",
          "type": "address"
        },
        {
          "name": "like_count",
          "type": "uint256"
        },
        {
          "name": "isPhoto",
          "type": "bool"
        }
      ],
      "payable": false,
      "stateMutability": "view",
      "type": "function"
    },
    {
      "inputs": [],
      "payable": false,
      "stateMutability": "nonpayable",
      "type": "constructor"
    },
    {
      "anonymous": false,
      "inputs": [
        {
          "indexed": false,
          "name": "_usernumber",
          "type": "uint256"
        },
        {
          "indexed": false,
          "name": "_useraddress",
          "type": "address"
        },
        {
          "indexed": false,
          "name": "_registeredphoto",
          "type": "uint256[]"
        }
      ],
      "name": "LogSignUp",
      "type": "event"
    },
    {
      "anonymous": false,
      "inputs": [
        {
          "indexed": false,
          "name": "_imageNumber",
          "type": "uint256"
        },
        {
          "indexed": false,
          "name": "_author",
          "type": "address"
        },
        {
          "indexed": false,
          "name": "_like_count",
          "type": "uint256"
        }
      ],
      "name": "LogRegistImage",
      "type": "event"
    },
    {
      "anonymous": false,
      "inputs": [
        {
          "indexed": false,
          "name": "_imageNumber",
          "type": "uint256"
        },
        {
          "indexed": false,
          "name": "_like_count",
          "type": "uint256"
        }
      ],
      "name": "LogLikePhoto",
      "type": "event"
    },
    {
      "constant": false,
      "inputs": [],
      "name": "signUp",
      "outputs": [],
      "payable": true,
      "stateMutability": "payable",
      "type": "function"
    },
    {
      "constant": false,
      "inputs": [],
      "name": "registImage",
      "outputs": [],
      "payable": true,
      "stateMutability": "payable",
      "type": "function"
    },
    {
      "constant": true,
      "inputs": [],
      "name": "getIsUserValid",
      "outputs": [
        {
          "name": "",
          "type": "bool"
        }
      ],
      "payable": false,
      "stateMutability": "view",
      "type": "function"
    },
    {
      "constant": true,
      "inputs": [],
      "name": "getIsPhotoValid",
      "outputs": [
        {
          "name": "",
          "type": "bool"
        }
      ],
      "payable": false,
      "stateMutability": "view",
      "type": "function"
    }
  ],
  "bytecode": "0x608060405234801561001057600080fd5b5033600260006101000a81548173ffffffffffffffffffffffffffffffffffffffff021916908373ffffffffffffffffffffffffffffffffffffffff160217905550610d62806100616000396000f3006080604052600436106100af576000357c0100000000000000000000000000000000000000000000000000000000900463ffffffff1680630eb18ce6146100b457806312921ac4146100e35780632b4e84131461017f57806355b858ca146101aa57806360c9697b1461022957806373cfcc82146102585780638da5cb5b146102ed578063b4d5494214610344578063b8917d241461036f578063bf96ae63146103f5578063dc9117d8146103ff575b600080fd5b3480156100c057600080fd5b506100c9610409565b604051808215151515815260200191505060405180910390f35b3480156100ef57600080fd5b50610124600480360381019080803573ffffffffffffffffffffffffffffffffffffffff169060200190929190505050610460565b604051808581526020018473ffffffffffffffffffffffffffffffffffffffff1673ffffffffffffffffffffffffffffffffffffffff1681526020018381526020018215151515815260200194505050505060405180910390f35b34801561018b57600080fd5b506101946104bd565b6040518082815260200191505060405180910390f35b3480156101b657600080fd5b506101d5600480360381019080803590602001909291905050506104c3565b604051808481526020018373ffffffffffffffffffffffffffffffffffffffff1673ffffffffffffffffffffffffffffffffffffffff16815260200182151515158152602001935050505060405180910390f35b34801561023557600080fd5b5061023e61051a565b604051808215151515815260200191505060405180910390f35b34801561026457600080fd5b50610299600480360381019080803573ffffffffffffffffffffffffffffffffffffffff169060200190929190505050610571565b604051808481526020018373ffffffffffffffffffffffffffffffffffffffff1673ffffffffffffffffffffffffffffffffffffffff16815260200182151515158152602001935050505060405180910390f35b3480156102f957600080fd5b506103026105c8565b604051808273ffffffffffffffffffffffffffffffffffffffff1673ffffffffffffffffffffffffffffffffffffffff16815260200191505060405180910390f35b34801561035057600080fd5b506103596105ee565b6040518082815260200191505060405180910390f35b34801561037b57600080fd5b5061039a600480360381019080803590602001909291905050506105f4565b604051808581526020018473ffffffffffffffffffffffffffffffffffffffff1673ffffffffffffffffffffffffffffffffffffffff1681526020018381526020018215151515815260200194505050505060405180910390f35b6103fd610651565b005b610407610a0b565b005b6000600160003373ffffffffffffffffffffffffffffffffffffffff1673ffffffffffffffffffffffffffffffffffffffff16815260200190815260200160002060030160009054906101000a900460ff16905090565b60046020528060005260406000206000915090508060000154908060010160009054906101000a900473ffffffffffffffffffffffffffffffffffffffff16908060020154908060030160009054906101000a900460ff16905084565b60055481565b60006020528060005260406000206000915090508060000154908060010160009054906101000a900473ffffffffffffffffffffffffffffffffffffffff16908060030160009054906101000a900460ff16905083565b6000600460003373ffffffffffffffffffffffffffffffffffffffff1673ffffffffffffffffffffffffffffffffffffffff16815260200190815260200160002060030160009054906101000a900460ff16905090565b60016020528060005260406000206000915090508060000154908060010160009054906101000a900473ffffffffffffffffffffffffffffffffffffffff16908060030160009054906101000a900460ff16905083565b600260009054906101000a900473ffffffffffffffffffffffffffffffffffffffff1681565b60065481565b60036020528060005260406000206000915090508060000154908060010160009054906101000a900473ffffffffffffffffffffffffffffffffffffffff16908060020154908060030160009054906101000a900460ff16905084565b60016005540160058190555060806040519081016040528060055481526020013373ffffffffffffffffffffffffffffffffffffffff16815260200160006040519080825280602002602001820160405280156106bd5781602001602082028038833980820191505090505b5081526020016001151581525060008060055481526020019081526020016000206000820151816000015560208201518160010160006101000a81548173ffffffffffffffffffffffffffffffffffffffff021916908373ffffffffffffffffffffffffffffffffffffffff160217905550604082015181600201908051906020019061074b929190610cc4565b5060608201518160030160006101000a81548160ff02191690831515021790555090505060806040519081016040528060055481526020013373ffffffffffffffffffffffffffffffffffffffff16815260200160006040519080825280602002602001820160405280156107cf5781602001602082028038833980820191505090505b50815260200160011515815250600160003373ffffffffffffffffffffffffffffffffffffffff1673ffffffffffffffffffffffffffffffffffffffff1681526020019081526020016000206000820151816000015560208201518160010160006101000a81548173ffffffffffffffffffffffffffffffffffffffff021916908373ffffffffffffffffffffffffffffffffffffffff1602179055506040820151816002019080519060200190610888929190610cc4565b5060608201518160030160006101000a81548160ff021916908315150217905550905050600260009054906101000a900473ffffffffffffffffffffffffffffffffffffffff1673ffffffffffffffffffffffffffffffffffffffff166108fc349081150290604051600060405180830381858888f19350505050158015610914573d6000803e3d6000fd5b507f4b671216edfc4634e6fc868e9b6d7f7987af44a9da63212698a749b64d04a47860055433600160003373ffffffffffffffffffffffffffffffffffffffff1673ffffffffffffffffffffffffffffffffffffffff168152602001908152602001600020600201604051808481526020018373ffffffffffffffffffffffffffffffffffffffff1673ffffffffffffffffffffffffffffffffffffffff1681526020018060200182810382528381815481526020019150805480156109f957602002820191906000526020600020905b8154815260200190600101908083116109e5575b505094505050505060405180910390a1565b60016006540160068190555060806040519081016040528060065481526020013373ffffffffffffffffffffffffffffffffffffffff16815260200160008152602001600115158152506003600060065481526020019081526020016000206000820151816000015560208201518160010160006101000a81548173ffffffffffffffffffffffffffffffffffffffff021916908373ffffffffffffffffffffffffffffffffffffffff1602179055506040820151816002015560608201518160030160006101000a81548160ff02191690831515021790555090505060806040519081016040528060065481526020013373ffffffffffffffffffffffffffffffffffffffff1681526020016000815260200160011515815250600460003373ffffffffffffffffffffffffffffffffffffffff1673ffffffffffffffffffffffffffffffffffffffff1681526020019081526020016000206000820151816000015560208201518160010160006101000a81548173ffffffffffffffffffffffffffffffffffffffff021916908373ffffffffffffffffffffffffffffffffffffffff1602179055506040820151816002015560608201518160030160006101000a81548160ff021916908315150217905550905050600260009054906101000a900473ffffffffffffffffffffffffffffffffffffffff1673ffffffffffffffffffffffffffffffffffffffff166108fc349081150290604051600060405180830381858888f19350505050158015610c4b573d6000803e3d6000fd5b507f2f0a70f25c928b7677ce1ae220c1bd5a5ebdca82a1b5f383eefe6735108d29b2600654336000604051808481526020018373ffffffffffffffffffffffffffffffffffffffff1673ffffffffffffffffffffffffffffffffffffffff168152602001828152602001935050505060405180910390a1565b828054828255906000526020600020908101928215610d00579160200282015b82811115610cff578251825591602001919060010190610ce4565b5b509050610d0d9190610d11565b5090565b610d3391905b80821115610d2f576000816000905550600101610d17565b5090565b905600a165627a7a72305820480b1d5df7ebbfb31ff4dc4b7c267384f0c203bf0c8788565cb8422fd89728150029",
  "source": "pragma solidity ^0.4.23;\r\n\r\ncontract Photo {\r\n\r\n    struct User{\r\n        uint user_Number;\r\n        address user_Address;\r\n        //bytes32 name;\r\n       // bytes32 emailAddress;\r\n        uint[] registeredPhoto;  // 자기가 업로드한 사진 번호\r\n        bool isUser;\r\n    }\r\n\r\n    struct Image{   // :만\r\n        uint256 image_Number; // 사진 번호\r\n        //string imageHash;  // 사진의 해쉬값\r\n        address author; // 사진주인의 userAddress\r\n        //uint256 value;  // 사진의 가격\r\n        uint256 like_count; // 좋아요 수\r\n        bool isPhoto;\r\n    }\r\n\r\n\r\n    mapping (uint => User) public users_num;\r\n    mapping (address => User) public users_addr;\r\n    address public owner;\r\n    //uint public user_num; // 전역변수 유저 배열 접근하는 인덱스 : 만\r\n    mapping (uint => Image) public images_by_number;   // 사진 번호로 사진에 접근 : 만\r\n    mapping (address => Image) public images_by_addr;   // 사진 번호로 사진에 접근 : 만\r\n    uint256 public userNumber;\r\n    uint256 public imageNumber;\r\n\r\n    event LogSignUp(\r\n        uint _usernumber,\r\n        address _useraddress,\r\n       // bytes32 _name,\r\n        //bytes32 _emailaddress\r\n        uint[] _registeredphoto\r\n    );\r\n\r\n    event LogRegistImage(   // : 만\r\n        uint256 _imageNumber,\r\n        //string _imageHash,\r\n        address _author,\r\n        //uint256 _value,\r\n        uint256 _like_count\r\n    );\r\n\r\n    event LogLikePhoto(\r\n        uint256 _imageNumber,\r\n        uint256 _like_count\r\n    );\r\n\r\n    constructor() public{\r\n        owner = msg.sender;\r\n    }\r\n    function signUp() public payable {\r\n        userNumber = userNumber + 1;\r\n\r\n        users_num[userNumber] = User(\r\n            userNumber,\r\n            msg.sender,\r\n            //_name,\r\n          //  _emailAddress,\r\n            new uint[](0),\r\n            true\r\n        );\r\n\r\n        users_addr[msg.sender] = User(\r\n            userNumber,\r\n            msg.sender,\r\n            //_name,\r\n            //_emailAddress,\r\n            new uint[](0),\r\n            true\r\n        );\r\n        owner.transfer(msg.value);\r\n        \r\n        emit LogSignUp(\r\n            userNumber,\r\n            msg.sender,\r\n            //users_addr[msg.sender].name,\r\n            //users_addr[msg.sender].emailAddress\r\n            users_addr[msg.sender].registeredPhoto\r\n        );\r\n\r\n    }\r\n\r\n    function registImage() public payable {   // : 만 (사진 업로드)\r\n\r\n        imageNumber = imageNumber + 1;\r\n\r\n        images_by_number[imageNumber] = Image(\r\n            imageNumber,\r\n            //_image_hash_number,\r\n            msg.sender,\r\n            //_image_value,\r\n            0,\r\n            true\r\n        );\r\n        images_by_addr[msg.sender] = Image(\r\n            imageNumber,\r\n            //_image_hash_number,\r\n            msg.sender,\r\n            //_image_value,\r\n            0,\r\n            true\r\n        );\r\n\r\n        //users_addr[msg.sender].registeredPhoto.push(imageNumber);\r\n        owner.transfer(msg.value);\r\n        emit LogRegistImage(\r\n            imageNumber,\r\n            //_image_hash_number,\r\n            msg.sender,\r\n            //_image_value,\r\n            0\r\n        );\r\n\r\n    }\r\n    /*\r\n    function likePhoto(uint _imageNumber) public returns (bool){    // 좋아요 누르기\r\n        images_by_number[_imageNumber].like_count++;\r\n\r\n        emit LogLikePhoto(\r\n            _imageNumber,\r\n            images_by_number[_imageNumber].like_count\r\n        );\r\n\r\n        return true;\r\n    }\r\n    */\r\n    function getIsUserValid() public view returns (bool) {\r\n        return users_addr[msg.sender].isUser;\r\n    }\r\n\r\n    function getIsPhotoValid() public view returns (bool) {\r\n        return images_by_addr[msg.sender].isPhoto;\r\n    }\r\n\r\n    /*\r\n    function getPhotoState(uint _imageNumber) public view returns (string, address, uint) {\r\n        Image memory image = images_by_number[_imageNumber];\r\n        return (image.imageHash, image.author, image.like_count);\r\n    }*/\r\n/*\r\n    function getUserRigesteredPhoto() public view returns (uint, address, uint[]){\r\n        User memory user = users_addr[msg.sender];\r\n        return (user.user_Number, user.user_Address, user.registeredPhoto);\r\n    }\r\n */   \r\n    /*function getUserInfo(uint _id) public view returns(bytes32, bytes32){\r\n        User memory user = users_num[_id];\r\n        return (user.name, user.emailAddress);\r\n    }*/\r\n}",
  "sourcePath": "C:\\Users\\sehoon\\Desktop\\project\\blockchainsns\\contracts\\Photo.sol",
  "compiler": {
    "name": "solc",
    "version": "0.4.23+commit.124ca40d.Emscripten.clang"
  },
  "schemaVersion": "2.0.0",
  "updatedAt": "2019-10-29T16:42:23.343Z"
}