{
  "contractName": "Photo",
  "abi": [
    {
      "constant": true,
      "inputs": [],
      "name": "userNumber",
      "outputs": [
        {
          "name": "",
          "type": "uint256"
        }
      ],
      "payable": false,
      "stateMutability": "view",
      "type": "function"
    },
    {
      "constant": true,
      "inputs": [
        {
          "name": "",
          "type": "uint256"
        }
      ],
      "name": "users_num",
      "outputs": [
        {
          "name": "userNumber",
          "type": "uint256"
        },
        {
          "name": "userAddress",
          "type": "address"
        },
        {
          "name": "name",
          "type": "string"
        },
        {
          "name": "emailAddress",
          "type": "string"
        },
        {
          "name": "isUser",
          "type": "bool"
        }
      ],
      "payable": false,
      "stateMutability": "view",
      "type": "function"
    },
    {
      "constant": true,
      "inputs": [
        {
          "name": "",
          "type": "address"
        }
      ],
      "name": "users_addr",
      "outputs": [
        {
          "name": "userNumber",
          "type": "uint256"
        },
        {
          "name": "userAddress",
          "type": "address"
        },
        {
          "name": "name",
          "type": "string"
        },
        {
          "name": "emailAddress",
          "type": "string"
        },
        {
          "name": "isUser",
          "type": "bool"
        }
      ],
      "payable": false,
      "stateMutability": "view",
      "type": "function"
    },
    {
      "anonymous": false,
      "inputs": [
        {
          "indexed": false,
          "name": "_usernumber",
          "type": "uint256"
        },
        {
          "indexed": false,
          "name": "_useraddress",
          "type": "address"
        },
        {
          "indexed": false,
          "name": "_name",
          "type": "string"
        },
        {
          "indexed": false,
          "name": "_emailaddress",
          "type": "string"
        },
        {
          "indexed": false,
          "name": "_registeredphoto",
          "type": "bytes32[]"
        }
      ],
      "name": "LogSignUp",
      "type": "event"
    },
    {
      "constant": false,
      "inputs": [
        {
          "name": "_name",
          "type": "string"
        },
        {
          "name": "_emailAddress",
          "type": "string"
        }
      ],
      "name": "signUp",
      "outputs": [
        {
          "name": "",
          "type": "bool"
        }
      ],
      "payable": false,
      "stateMutability": "nonpayable",
      "type": "function"
    },
    {
      "constant": true,
      "inputs": [],
      "name": "getIsUserValid",
      "outputs": [
        {
          "name": "",
          "type": "bool"
        }
      ],
      "payable": false,
      "stateMutability": "view",
      "type": "function"
    }
  ],
  "bytecode": "0x608060405234801561001057600080fd5b50610ea4806100206000396000f30060806040526004361061006d576000357c0100000000000000000000000000000000000000000000000000000000900463ffffffff1680630eb18ce6146100725780632b4e8413146100a157806355b858ca146100cc57806373cfcc8214610223578063a469a33214610390575b600080fd5b34801561007e57600080fd5b50610087610457565b604051808215151515815260200191505060405180910390f35b3480156100ad57600080fd5b506100b66104ae565b6040518082815260200191505060405180910390f35b3480156100d857600080fd5b506100f7600480360381019080803590602001909291905050506104b4565b604051808681526020018573ffffffffffffffffffffffffffffffffffffffff1673ffffffffffffffffffffffffffffffffffffffff168152602001806020018060200184151515158152602001838103835286818151815260200191508051906020019080838360005b8381101561017d578082015181840152602081019050610162565b50505050905090810190601f1680156101aa5780820380516001836020036101000a031916815260200191505b50838103825285818151815260200191508051906020019080838360005b838110156101e35780820151818401526020810190506101c8565b50505050905090810190601f1680156102105780820380516001836020036101000a031916815260200191505b5097505050505050505060405180910390f35b34801561022f57600080fd5b50610264600480360381019080803573ffffffffffffffffffffffffffffffffffffffff169060200190929190505050610647565b604051808681526020018573ffffffffffffffffffffffffffffffffffffffff1673ffffffffffffffffffffffffffffffffffffffff168152602001806020018060200184151515158152602001838103835286818151815260200191508051906020019080838360005b838110156102ea5780820151818401526020810190506102cf565b50505050905090810190601f1680156103175780820380516001836020036101000a031916815260200191505b50838103825285818151815260200191508051906020019080838360005b83811015610350578082015181840152602081019050610335565b50505050905090810190601f16801561037d5780820380516001836020036101000a031916815260200191505b5097505050505050505060405180910390f35b34801561039c57600080fd5b5061043d600480360381019080803590602001908201803590602001908080601f0160208091040260200160405190810160405280939291908181526020018383808284378201915050505050509192919290803590602001908201803590602001908080601f01602080910402602001604051908101604052809392919081815260200183838082843782019150505050505091929192905050506107da565b604051808215151515815260200191505060405180910390f35b6000600160003373ffffffffffffffffffffffffffffffffffffffff1673ffffffffffffffffffffffffffffffffffffffff16815260200190815260200160002060050160009054906101000a900460ff16905090565b60025481565b60006020528060005260406000206000915090508060000154908060010160009054906101000a900473ffffffffffffffffffffffffffffffffffffffff1690806002018054600181600116156101000203166002900480601f01602080910402602001604051908101604052809291908181526020018280546001816001161561010002031660029004801561058c5780601f106105615761010080835404028352916020019161058c565b820191906000526020600020905b81548152906001019060200180831161056f57829003601f168201915b505050505090806003018054600181600116156101000203166002900480601f01602080910402602001604051908101604052809291908181526020018280546001816001161561010002031660029004801561062a5780601f106105ff5761010080835404028352916020019161062a565b820191906000526020600020905b81548152906001019060200180831161060d57829003601f168201915b5050505050908060050160009054906101000a900460ff16905085565b60016020528060005260406000206000915090508060000154908060010160009054906101000a900473ffffffffffffffffffffffffffffffffffffffff1690806002018054600181600116156101000203166002900480601f01602080910402602001604051908101604052809291908181526020018280546001816001161561010002031660029004801561071f5780601f106106f45761010080835404028352916020019161071f565b820191906000526020600020905b81548152906001019060200180831161070257829003601f168201915b505050505090806003018054600181600116156101000203166002900480601f0160208091040260200160405190810160405280929190818152602001828054600181600116156101000203166002900480156107bd5780601f10610792576101008083540402835291602001916107bd565b820191906000526020600020905b8154815290600101906020018083116107a057829003601f168201915b5050505050908060050160009054906101000a900460ff16905085565b600060016002540160028190555060c06040519081016040528060025481526020013373ffffffffffffffffffffffffffffffffffffffff16815260200184815260200183815260200160006040519080825280602002602001820160405280156108545781602001602082028038833980820191505090505b5081526020016001151581525060008060025481526020019081526020016000206000820151816000015560208201518160010160006101000a81548173ffffffffffffffffffffffffffffffffffffffff021916908373ffffffffffffffffffffffffffffffffffffffff16021790555060408201518160020190805190602001906108e2929190610d5b565b5060608201518160030190805190602001906108ff929190610d5b565b50608082015181600401908051906020019061091c929190610ddb565b5060a08201518160050160006101000a81548160ff02191690831515021790555090505060c06040519081016040528060025481526020013373ffffffffffffffffffffffffffffffffffffffff16815260200184815260200183815260200160006040519080825280602002602001820160405280156109ac5781602001602082028038833980820191505090505b50815260200160011515815250600160003373ffffffffffffffffffffffffffffffffffffffff1673ffffffffffffffffffffffffffffffffffffffff1681526020019081526020016000206000820151816000015560208201518160010160006101000a81548173ffffffffffffffffffffffffffffffffffffffff021916908373ffffffffffffffffffffffffffffffffffffffff1602179055506040820151816002019080519060200190610a65929190610d5b565b506060820151816003019080519060200190610a82929190610d5b565b506080820151816004019080519060200190610a9f929190610ddb565b5060a08201518160050160006101000a81548160ff0219169083151502179055509050507f52f1400b799b460db7a6d0ba4a5e47e94e9944b909b3a42f6ecf57d1ba81e7ba60025433600160003373ffffffffffffffffffffffffffffffffffffffff1673ffffffffffffffffffffffffffffffffffffffff168152602001908152602001600020600201600160003373ffffffffffffffffffffffffffffffffffffffff1673ffffffffffffffffffffffffffffffffffffffff168152602001908152602001600020600301600160003373ffffffffffffffffffffffffffffffffffffffff1673ffffffffffffffffffffffffffffffffffffffff168152602001908152602001600020600401604051808681526020018573ffffffffffffffffffffffffffffffffffffffff1673ffffffffffffffffffffffffffffffffffffffff168152602001806020018060200180602001848103845287818154600181600116156101000203166002900481526020019150805460018160011615610100020316600290048015610c775780601f10610c4c57610100808354040283529160200191610c77565b820191906000526020600020905b815481529060010190602001808311610c5a57829003601f168201915b5050848103835286818154600181600116156101000203166002900481526020019150805460018160011615610100020316600290048015610cfa5780601f10610ccf57610100808354040283529160200191610cfa565b820191906000526020600020905b815481529060010190602001808311610cdd57829003601f168201915b50508481038252858181548152602001915080548015610d3d57602002820191906000526020600020905b81546000191681526020019060010190808311610d25575b50509850505050505050505060405180910390a16001905092915050565b828054600181600116156101000203166002900490600052602060002090601f016020900481019282601f10610d9c57805160ff1916838001178555610dca565b82800160010185558215610dca579182015b82811115610dc9578251825591602001919060010190610dae565b5b509050610dd79190610e2e565b5090565b828054828255906000526020600020908101928215610e1d579160200282015b82811115610e1c578251829060001916905591602001919060010190610dfb565b5b509050610e2a9190610e53565b5090565b610e5091905b80821115610e4c576000816000905550600101610e34565b5090565b90565b610e7591905b80821115610e71576000816000905550600101610e59565b5090565b905600a165627a7a7230582015469f327050787a6635d1d61223433e60ae27ffc1e3dcf8c8a2474f29d15e370029",
  "source": "pragma solidity ^0.4.23;\r\n\r\ncontract Photo {\r\n    struct User{\r\n        uint userNumber;\r\n        address userAddress;\r\n        string name;\r\n        string emailAddress;\r\n        bytes32[] registeredPhoto;\r\n        bool isUser;\r\n    }\r\n\r\n    mapping (uint => User) public users_num;\r\n    mapping (address => User) public users_addr;\r\n\r\n    uint public userNumber; // 전역변수 유저 배열 접근하는 인덱스\r\n\r\n    event LogSignUp(\r\n        uint _usernumber,\r\n        address _useraddress,\r\n        string _name,\r\n        string _emailaddress,\r\n        bytes32[] _registeredphoto\r\n    );\r\n\r\n    function signUp(string _name, string _emailAddress) public returns (bool) {\r\n        userNumber = userNumber + 1;\r\n\r\n        users_num[userNumber] = User(\r\n            userNumber,\r\n            msg.sender,\r\n            _name,\r\n            _emailAddress,\r\n            new bytes32[](0),\r\n            true\r\n        );\r\n\r\n        users_addr[msg.sender] = User(\r\n            userNumber,\r\n            msg.sender,\r\n            _name,\r\n            _emailAddress,\r\n            new bytes32[](0),\r\n            true\r\n        );\r\n\r\n        emit LogSignUp(\r\n            userNumber,\r\n            msg.sender,\r\n            users_addr[msg.sender].name,\r\n            users_addr[msg.sender].emailAddress,\r\n            users_addr[msg.sender].registeredPhoto\r\n        );\r\n\r\n        return true;\r\n    }\r\n    function getIsUserValid() public view returns (bool) {\r\n        return users_addr[msg.sender].isUser;\r\n    }\r\n}\r\n",
  "sourcePath": "/home/ubuntu/flaskapp/contracts/Photo.sol",
  "compiler": {
    "name": "solc",
    "version": "0.4.25+commit.59dbf8f1.Emscripten.clang"
  },
  "schemaVersion": "2.0.2",
  "updatedAt": "2019-07-25T12:03:11.149Z"
}